{
  "_format": "hh-sol-artifact-1",
  "contractName": "WETH",
  "sourceName": "contracts/WETH.sol",
  "abi": [
    {
      "inputs": [],
      "stateMutability": "nonpayable",
      "type": "constructor"
    },
    {
      "anonymous": false,
      "inputs": [
        {
          "indexed": true,
          "internalType": "address",
          "name": "owner",
          "type": "address"
        },
        {
          "indexed": true,
          "internalType": "address",
          "name": "spender",
          "type": "address"
        },
        {
          "indexed": false,
          "internalType": "uint256",
          "name": "value",
          "type": "uint256"
        }
      ],
      "name": "Approval",
      "type": "event"
    },
    {
      "anonymous": false,
      "inputs": [
        {
          "indexed": true,
          "internalType": "address",
          "name": "from",
          "type": "address"
        },
        {
          "indexed": true,
          "internalType": "address",
          "name": "to",
          "type": "address"
        },
        {
          "indexed": false,
          "internalType": "uint256",
          "name": "value",
          "type": "uint256"
        }
      ],
      "name": "Transfer",
      "type": "event"
    },
    {
      "inputs": [
        {
          "internalType": "address",
          "name": "owner",
          "type": "address"
        },
        {
          "internalType": "address",
          "name": "spender",
          "type": "address"
        }
      ],
      "name": "allowance",
      "outputs": [
        {
          "internalType": "uint256",
          "name": "",
          "type": "uint256"
        }
      ],
      "stateMutability": "view",
      "type": "function"
    },
    {
      "inputs": [
        {
          "internalType": "address",
          "name": "spender",
          "type": "address"
        },
        {
          "internalType": "uint256",
          "name": "amount",
          "type": "uint256"
        }
      ],
      "name": "approve",
      "outputs": [
        {
          "internalType": "bool",
          "name": "",
          "type": "bool"
        }
      ],
      "stateMutability": "nonpayable",
      "type": "function"
    },
    {
      "inputs": [
        {
          "internalType": "address",
          "name": "account",
          "type": "address"
        }
      ],
      "name": "balanceOf",
      "outputs": [
        {
          "internalType": "uint256",
          "name": "",
          "type": "uint256"
        }
      ],
      "stateMutability": "view",
      "type": "function"
    },
    {
      "inputs": [
        {
          "internalType": "uint256",
          "name": "amount",
          "type": "uint256"
        }
      ],
      "name": "burn",
      "outputs": [],
      "stateMutability": "nonpayable",
      "type": "function"
    },
    {
      "inputs": [],
      "name": "decimals",
      "outputs": [
        {
          "internalType": "uint8",
          "name": "",
          "type": "uint8"
        }
      ],
      "stateMutability": "view",
      "type": "function"
    },
    {
      "inputs": [
        {
          "internalType": "address",
          "name": "spender",
          "type": "address"
        },
        {
          "internalType": "uint256",
          "name": "subtractedValue",
          "type": "uint256"
        }
      ],
      "name": "decreaseAllowance",
      "outputs": [
        {
          "internalType": "bool",
          "name": "",
          "type": "bool"
        }
      ],
      "stateMutability": "nonpayable",
      "type": "function"
    },
    {
      "inputs": [
        {
          "internalType": "address",
          "name": "spender",
          "type": "address"
        },
        {
          "internalType": "uint256",
          "name": "addedValue",
          "type": "uint256"
        }
      ],
      "name": "increaseAllowance",
      "outputs": [
        {
          "internalType": "bool",
          "name": "",
          "type": "bool"
        }
      ],
      "stateMutability": "nonpayable",
      "type": "function"
    },
    {
      "inputs": [],
      "name": "mint",
      "outputs": [],
      "stateMutability": "payable",
      "type": "function"
    },
    {
      "inputs": [],
      "name": "name",
      "outputs": [
        {
          "internalType": "string",
          "name": "",
          "type": "string"
        }
      ],
      "stateMutability": "view",
      "type": "function"
    },
    {
      "inputs": [],
      "name": "symbol",
      "outputs": [
        {
          "internalType": "string",
          "name": "",
          "type": "string"
        }
      ],
      "stateMutability": "view",
      "type": "function"
    },
    {
      "inputs": [],
      "name": "totalSupply",
      "outputs": [
        {
          "internalType": "uint256",
          "name": "",
          "type": "uint256"
        }
      ],
      "stateMutability": "view",
      "type": "function"
    },
    {
      "inputs": [
        {
          "internalType": "address",
          "name": "to",
          "type": "address"
        },
        {
          "internalType": "uint256",
          "name": "amount",
          "type": "uint256"
        }
      ],
      "name": "transfer",
      "outputs": [
        {
          "internalType": "bool",
          "name": "",
          "type": "bool"
        }
      ],
      "stateMutability": "nonpayable",
      "type": "function"
    },
    {
      "inputs": [
        {
          "internalType": "address",
          "name": "from",
          "type": "address"
        },
        {
          "internalType": "address",
          "name": "to",
          "type": "address"
        },
        {
          "internalType": "uint256",
          "name": "amount",
          "type": "uint256"
        }
      ],
      "name": "transferFrom",
      "outputs": [
        {
          "internalType": "bool",
          "name": "",
          "type": "bool"
        }
      ],
      "stateMutability": "nonpayable",
      "type": "function"
    }
  ],
  "bytecode": "0x60806040523480156200001157600080fd5b506040518060400160405280600d81526020017f57726170706564204574686572000000000000000000000000000000000000008152506040518060400160405280600481526020017f5745544800000000000000000000000000000000000000000000000000000000815250816003908051906020019062000096929190620000b8565b508060049080519060200190620000af929190620000b8565b505050620001cc565b828054620000c69062000197565b90600052602060002090601f016020900481019282620000ea576000855562000136565b82601f106200010557805160ff191683800117855562000136565b8280016001018555821562000136579182015b828111156200013557825182559160200191906001019062000118565b5b50905062000145919062000149565b5090565b5b80821115620001645760008160009055506001016200014a565b5090565b7f4e487b7100000000000000000000000000000000000000000000000000000000600052602260045260246000fd5b60006002820490506001821680620001b057607f821691505b602082108103620001c657620001c562000168565b5b50919050565b6119dc80620001dc6000396000f3fe6080604052600436106100c25760003560e01c8063395093511161007f57806395d89b411161005957806395d89b411461026f578063a457c2d71461029a578063a9059cbb146102d7578063dd62ed3e14610314576100c2565b806339509351146101cc57806342966c681461020957806370a0823114610232576100c2565b806306fdde03146100c7578063095ea7b3146100f25780631249c58b1461012f57806318160ddd1461013957806323b872dd14610164578063313ce567146101a1575b600080fd5b3480156100d357600080fd5b506100dc610351565b6040516100e99190610ff4565b60405180910390f35b3480156100fe57600080fd5b50610119600480360381019061011491906110af565b6103e3565b604051610126919061110a565b60405180910390f35b610137610406565b005b34801561014557600080fd5b5061014e610412565b60405161015b9190611134565b60405180910390f35b34801561017057600080fd5b5061018b6004803603810190610186919061114f565b61041c565b604051610198919061110a565b60405180910390f35b3480156101ad57600080fd5b506101b661044b565b6040516101c391906111be565b60405180910390f35b3480156101d857600080fd5b506101f360048036038101906101ee91906110af565b610454565b604051610200919061110a565b60405180910390f35b34801561021557600080fd5b50610230600480360381019061022b91906111d9565b61048b565b005b34801561023e57600080fd5b5061025960048036038101906102549190611206565b610545565b6040516102669190611134565b60405180910390f35b34801561027b57600080fd5b5061028461058d565b6040516102919190610ff4565b60405180910390f35b3480156102a657600080fd5b506102c160048036038101906102bc91906110af565b61061f565b6040516102ce919061110a565b60405180910390f35b3480156102e357600080fd5b506102fe60048036038101906102f991906110af565b610696565b60405161030b919061110a565b60405180910390f35b34801561032057600080fd5b5061033b60048036038101906103369190611233565b6106b9565b6040516103489190611134565b60405180910390f35b606060038054610360906112a2565b80601f016020809104026020016040519081016040528092919081815260200182805461038c906112a2565b80156103d95780601f106103ae576101008083540402835291602001916103d9565b820191906000526020600020905b8154815290600101906020018083116103bc57829003601f168201915b5050505050905090565b6000806103ee610740565b90506103fb818585610748565b600191505092915050565b6104103334610911565b565b6000600254905090565b600080610427610740565b9050610434858285610a70565b61043f858585610afc565b60019150509392505050565b60006012905090565b60008061045f610740565b905061048081858561047185896106b9565b61047b9190611302565b610748565b600191505092915050565b6104953382610d7b565b60003373ffffffffffffffffffffffffffffffffffffffff16826040516104bb90611389565b60006040518083038185875af1925050503d80600081146104f8576040519150601f19603f3d011682016040523d82523d6000602084013e6104fd565b606091505b5050905080610541576040517f08c379a0000000000000000000000000000000000000000000000000000000008152600401610538906113ea565b60405180910390fd5b5050565b60008060008373ffffffffffffffffffffffffffffffffffffffff1673ffffffffffffffffffffffffffffffffffffffff168152602001908152602001600020549050919050565b60606004805461059c906112a2565b80601f01602080910402602001604051908101604052809291908181526020018280546105c8906112a2565b80156106155780601f106105ea57610100808354040283529160200191610615565b820191906000526020600020905b8154815290600101906020018083116105f857829003601f168201915b5050505050905090565b60008061062a610740565b9050600061063882866106b9565b90508381101561067d576040517f08c379a00000000000000000000000000000000000000000000000000000000081526004016106749061147c565b60405180910390fd5b61068a8286868403610748565b60019250505092915050565b6000806106a1610740565b90506106ae818585610afc565b600191505092915050565b6000600160008473ffffffffffffffffffffffffffffffffffffffff1673ffffffffffffffffffffffffffffffffffffffff16815260200190815260200160002060008373ffffffffffffffffffffffffffffffffffffffff1673ffffffffffffffffffffffffffffffffffffffff16815260200190815260200160002054905092915050565b600033905090565b600073ffffffffffffffffffffffffffffffffffffffff168373ffffffffffffffffffffffffffffffffffffffff16036107b7576040517f08c379a00000000000000000000000000000000000000000000000000000000081526004016107ae9061150e565b60405180910390fd5b600073ffffffffffffffffffffffffffffffffffffffff168273ffffffffffffffffffffffffffffffffffffffff1603610826576040517f08c379a000000000000000000000000000000000000000000000000000000000815260040161081d906115a0565b60405180910390fd5b80600160008573ffffffffffffffffffffffffffffffffffffffff1673ffffffffffffffffffffffffffffffffffffffff16815260200190815260200160002060008473ffffffffffffffffffffffffffffffffffffffff1673ffffffffffffffffffffffffffffffffffffffff168152602001908152602001600020819055508173ffffffffffffffffffffffffffffffffffffffff168373ffffffffffffffffffffffffffffffffffffffff167f8c5be1e5ebec7d5bd14f71427d1e84f3dd0314c0f7b2291e5b200ac8c7c3b925836040516109049190611134565b60405180910390a3505050565b600073ffffffffffffffffffffffffffffffffffffffff168273ffffffffffffffffffffffffffffffffffffffff1603610980576040517f08c379a00000000000000000000000000000000000000000000000000000000081526004016109779061160c565b60405180910390fd5b61098c60008383610f51565b806002600082825461099e9190611302565b92505081905550806000808473ffffffffffffffffffffffffffffffffffffffff1673ffffffffffffffffffffffffffffffffffffffff16815260200190815260200160002060008282546109f39190611302565b925050819055508173ffffffffffffffffffffffffffffffffffffffff16600073ffffffffffffffffffffffffffffffffffffffff167fddf252ad1be2c89b69c2b068fc378daa952ba7f163c4a11628f55a4df523b3ef83604051610a589190611134565b60405180910390a3610a6c60008383610f56565b5050565b6000610a7c84846106b9565b90507fffffffffffffffffffffffffffffffffffffffffffffffffffffffffffffffff8114610af65781811015610ae8576040517f08c379a0000000000000000000000000000000000000000000000000000000008152600401610adf90611678565b60405180910390fd5b610af58484848403610748565b5b50505050565b600073ffffffffffffffffffffffffffffffffffffffff168373ffffffffffffffffffffffffffffffffffffffff1603610b6b576040517f08c379a0000000000000000000000000000000000000000000000000000000008152600401610b629061170a565b60405180910390fd5b600073ffffffffffffffffffffffffffffffffffffffff168273ffffffffffffffffffffffffffffffffffffffff1603610bda576040517f08c379a0000000000000000000000000000000000000000000000000000000008152600401610bd19061179c565b60405180910390fd5b610be5838383610f51565b60008060008573ffffffffffffffffffffffffffffffffffffffff1673ffffffffffffffffffffffffffffffffffffffff16815260200190815260200160002054905081811015610c6b576040517f08c379a0000000000000000000000000000000000000000000000000000000008152600401610c629061182e565b60405180910390fd5b8181036000808673ffffffffffffffffffffffffffffffffffffffff1673ffffffffffffffffffffffffffffffffffffffff16815260200190815260200160002081905550816000808573ffffffffffffffffffffffffffffffffffffffff1673ffffffffffffffffffffffffffffffffffffffff1681526020019081526020016000206000828254610cfe9190611302565b925050819055508273ffffffffffffffffffffffffffffffffffffffff168473ffffffffffffffffffffffffffffffffffffffff167fddf252ad1be2c89b69c2b068fc378daa952ba7f163c4a11628f55a4df523b3ef84604051610d629190611134565b60405180910390a3610d75848484610f56565b50505050565b600073ffffffffffffffffffffffffffffffffffffffff168273ffffffffffffffffffffffffffffffffffffffff1603610dea576040517f08c379a0000000000000000000000000000000000000000000000000000000008152600401610de1906118c0565b60405180910390fd5b610df682600083610f51565b60008060008473ffffffffffffffffffffffffffffffffffffffff1673ffffffffffffffffffffffffffffffffffffffff16815260200190815260200160002054905081811015610e7c576040517f08c379a0000000000000000000000000000000000000000000000000000000008152600401610e7390611952565b60405180910390fd5b8181036000808573ffffffffffffffffffffffffffffffffffffffff1673ffffffffffffffffffffffffffffffffffffffff168152602001908152602001600020819055508160026000828254610ed39190611972565b92505081905550600073ffffffffffffffffffffffffffffffffffffffff168373ffffffffffffffffffffffffffffffffffffffff167fddf252ad1be2c89b69c2b068fc378daa952ba7f163c4a11628f55a4df523b3ef84604051610f389190611134565b60405180910390a3610f4c83600084610f56565b505050565b505050565b505050565b600081519050919050565b600082825260208201905092915050565b60005b83811015610f95578082015181840152602081019050610f7a565b83811115610fa4576000848401525b50505050565b6000601f19601f8301169050919050565b6000610fc682610f5b565b610fd08185610f66565b9350610fe0818560208601610f77565b610fe981610faa565b840191505092915050565b6000602082019050818103600083015261100e8184610fbb565b905092915050565b600080fd5b600073ffffffffffffffffffffffffffffffffffffffff82169050919050565b60006110468261101b565b9050919050565b6110568161103b565b811461106157600080fd5b50565b6000813590506110738161104d565b92915050565b6000819050919050565b61108c81611079565b811461109757600080fd5b50565b6000813590506110a981611083565b92915050565b600080604083850312156110c6576110c5611016565b5b60006110d485828601611064565b92505060206110e58582860161109a565b9150509250929050565b60008115159050919050565b611104816110ef565b82525050565b600060208201905061111f60008301846110fb565b92915050565b61112e81611079565b82525050565b60006020820190506111496000830184611125565b92915050565b60008060006060848603121561116857611167611016565b5b600061117686828701611064565b935050602061118786828701611064565b92505060406111988682870161109a565b9150509250925092565b600060ff82169050919050565b6111b8816111a2565b82525050565b60006020820190506111d360008301846111af565b92915050565b6000602082840312156111ef576111ee611016565b5b60006111fd8482850161109a565b91505092915050565b60006020828403121561121c5761121b611016565b5b600061122a84828501611064565b91505092915050565b6000806040838503121561124a57611249611016565b5b600061125885828601611064565b925050602061126985828601611064565b9150509250929050565b7f4e487b7100000000000000000000000000000000000000000000000000000000600052602260045260246000fd5b600060028204905060018216806112ba57607f821691505b6020821081036112cd576112cc611273565b5b50919050565b7f4e487b7100000000000000000000000000000000000000000000000000000000600052601160045260246000fd5b600061130d82611079565b915061131883611079565b9250827fffffffffffffffffffffffffffffffffffffffffffffffffffffffffffffffff0382111561134d5761134c6112d3565b5b828201905092915050565b600081905092915050565b50565b6000611373600083611358565b915061137e82611363565b600082019050919050565b600061139482611366565b9150819050919050565b7f5472616e73666572206661696c65642e00000000000000000000000000000000600082015250565b60006113d4601083610f66565b91506113df8261139e565b602082019050919050565b60006020820190508181036000830152611403816113c7565b9050919050565b7f45524332303a2064656372656173656420616c6c6f77616e63652062656c6f7760008201527f207a65726f000000000000000000000000000000000000000000000000000000602082015250565b6000611466602583610f66565b91506114718261140a565b604082019050919050565b6000602082019050818103600083015261149581611459565b9050919050565b7f45524332303a20617070726f76652066726f6d20746865207a65726f2061646460008201527f7265737300000000000000000000000000000000000000000000000000000000602082015250565b60006114f8602483610f66565b91506115038261149c565b604082019050919050565b60006020820190508181036000830152611527816114eb565b9050919050565b7f45524332303a20617070726f766520746f20746865207a65726f20616464726560008201527f7373000000000000000000000000000000000000000000000000000000000000602082015250565b600061158a602283610f66565b91506115958261152e565b604082019050919050565b600060208201905081810360008301526115b98161157d565b9050919050565b7f45524332303a206d696e7420746f20746865207a65726f206164647265737300600082015250565b60006115f6601f83610f66565b9150611601826115c0565b602082019050919050565b60006020820190508181036000830152611625816115e9565b9050919050565b7f45524332303a20696e73756666696369656e7420616c6c6f77616e6365000000600082015250565b6000611662601d83610f66565b915061166d8261162c565b602082019050919050565b6000602082019050818103600083015261169181611655565b9050919050565b7f45524332303a207472616e736665722066726f6d20746865207a65726f20616460008201527f6472657373000000000000000000000000000000000000000000000000000000602082015250565b60006116f4602583610f66565b91506116ff82611698565b604082019050919050565b60006020820190508181036000830152611723816116e7565b9050919050565b7f45524332303a207472616e7366657220746f20746865207a65726f206164647260008201527f6573730000000000000000000000000000000000000000000000000000000000602082015250565b6000611786602383610f66565b91506117918261172a565b604082019050919050565b600060208201905081810360008301526117b581611779565b9050919050565b7f45524332303a207472616e7366657220616d6f756e742065786365656473206260008201527f616c616e63650000000000000000000000000000000000000000000000000000602082015250565b6000611818602683610f66565b9150611823826117bc565b604082019050919050565b600060208201905081810360008301526118478161180b565b9050919050565b7f45524332303a206275726e2066726f6d20746865207a65726f2061646472657360008201527f7300000000000000000000000000000000000000000000000000000000000000602082015250565b60006118aa602183610f66565b91506118b58261184e565b604082019050919050565b600060208201905081810360008301526118d98161189d565b9050919050565b7f45524332303a206275726e20616d6f756e7420657863656564732062616c616e60008201527f6365000000000000000000000000000000000000000000000000000000000000602082015250565b600061193c602283610f66565b9150611947826118e0565b604082019050919050565b6000602082019050818103600083015261196b8161192f565b9050919050565b600061197d82611079565b915061198883611079565b92508282101561199b5761199a6112d3565b5b82820390509291505056fea2646970667358221220ae2827ed5e5838b87c57b91bb3323f0fe3786cd9b4dc1f4710ae92365cd5df7364736f6c634300080e0033",
  "linkReferences": {},
  "deployedLinkReferences": {}
}