{
  "_format": "hh-sol-artifact-1",
  "contractName": "NFTCollection",
  "sourceName": "contracts/NFTCollection.sol",
  "abi": [
    {
      "inputs": [
        {
          "internalType": "string",
          "name": "_name",
          "type": "string"
        },
        {
          "internalType": "string",
          "name": "_symbol",
          "type": "string"
        },
        {
          "internalType": "string",
          "name": "_baseUri",
          "type": "string"
        },
        {
          "internalType": "uint8",
          "name": "_nb_uniques",
          "type": "uint8"
        }
      ],
      "stateMutability": "nonpayable",
      "type": "constructor"
    },
    {
      "anonymous": false,
      "inputs": [
        {
          "indexed": true,
          "internalType": "address",
          "name": "owner",
          "type": "address"
        },
        {
          "indexed": true,
          "internalType": "address",
          "name": "approved",
          "type": "address"
        },
        {
          "indexed": true,
          "internalType": "uint256",
          "name": "tokenId",
          "type": "uint256"
        }
      ],
      "name": "Approval",
      "type": "event"
    },
    {
      "anonymous": false,
      "inputs": [
        {
          "indexed": true,
          "internalType": "address",
          "name": "owner",
          "type": "address"
        },
        {
          "indexed": true,
          "internalType": "address",
          "name": "operator",
          "type": "address"
        },
        {
          "indexed": false,
          "internalType": "bool",
          "name": "approved",
          "type": "bool"
        }
      ],
      "name": "ApprovalForAll",
      "type": "event"
    },
    {
      "anonymous": false,
      "inputs": [
        {
          "indexed": true,
          "internalType": "address",
          "name": "previousOwner",
          "type": "address"
        },
        {
          "indexed": true,
          "internalType": "address",
          "name": "newOwner",
          "type": "address"
        }
      ],
      "name": "OwnershipTransferred",
      "type": "event"
    },
    {
      "anonymous": false,
      "inputs": [
        {
          "indexed": true,
          "internalType": "address",
          "name": "from",
          "type": "address"
        },
        {
          "indexed": true,
          "internalType": "address",
          "name": "to",
          "type": "address"
        },
        {
          "indexed": true,
          "internalType": "uint256",
          "name": "tokenId",
          "type": "uint256"
        }
      ],
      "name": "Transfer",
      "type": "event"
    },
    {
      "inputs": [
        {
          "internalType": "address",
          "name": "to",
          "type": "address"
        },
        {
          "internalType": "uint256",
          "name": "tokenId",
          "type": "uint256"
        }
      ],
      "name": "approve",
      "outputs": [],
      "stateMutability": "nonpayable",
      "type": "function"
    },
    {
      "inputs": [
        {
          "internalType": "address",
          "name": "owner",
          "type": "address"
        }
      ],
      "name": "balanceOf",
      "outputs": [
        {
          "internalType": "uint256",
          "name": "",
          "type": "uint256"
        }
      ],
      "stateMutability": "view",
      "type": "function"
    },
    {
      "inputs": [
        {
          "internalType": "uint256",
          "name": "tokenId",
          "type": "uint256"
        }
      ],
      "name": "getApproved",
      "outputs": [
        {
          "internalType": "address",
          "name": "",
          "type": "address"
        }
      ],
      "stateMutability": "view",
      "type": "function"
    },
    {
      "inputs": [
        {
          "internalType": "address",
          "name": "owner",
          "type": "address"
        },
        {
          "internalType": "address",
          "name": "operator",
          "type": "address"
        }
      ],
      "name": "isApprovedForAll",
      "outputs": [
        {
          "internalType": "bool",
          "name": "",
          "type": "bool"
        }
      ],
      "stateMutability": "view",
      "type": "function"
    },
    {
      "inputs": [],
      "name": "mint",
      "outputs": [
        {
          "internalType": "uint256",
          "name": "",
          "type": "uint256"
        }
      ],
      "stateMutability": "nonpayable",
      "type": "function"
    },
    {
      "inputs": [],
      "name": "name",
      "outputs": [
        {
          "internalType": "string",
          "name": "",
          "type": "string"
        }
      ],
      "stateMutability": "view",
      "type": "function"
    },
    {
      "inputs": [],
      "name": "owner",
      "outputs": [
        {
          "internalType": "address",
          "name": "",
          "type": "address"
        }
      ],
      "stateMutability": "view",
      "type": "function"
    },
    {
      "inputs": [
        {
          "internalType": "uint256",
          "name": "tokenId",
          "type": "uint256"
        }
      ],
      "name": "ownerOf",
      "outputs": [
        {
          "internalType": "address",
          "name": "",
          "type": "address"
        }
      ],
      "stateMutability": "view",
      "type": "function"
    },
    {
      "inputs": [],
      "name": "renounceOwnership",
      "outputs": [],
      "stateMutability": "nonpayable",
      "type": "function"
    },
    {
      "inputs": [
        {
          "internalType": "address",
          "name": "from",
          "type": "address"
        },
        {
          "internalType": "address",
          "name": "to",
          "type": "address"
        },
        {
          "internalType": "uint256",
          "name": "tokenId",
          "type": "uint256"
        }
      ],
      "name": "safeTransferFrom",
      "outputs": [],
      "stateMutability": "nonpayable",
      "type": "function"
    },
    {
      "inputs": [
        {
          "internalType": "address",
          "name": "from",
          "type": "address"
        },
        {
          "internalType": "address",
          "name": "to",
          "type": "address"
        },
        {
          "internalType": "uint256",
          "name": "tokenId",
          "type": "uint256"
        },
        {
          "internalType": "bytes",
          "name": "_data",
          "type": "bytes"
        }
      ],
      "name": "safeTransferFrom",
      "outputs": [],
      "stateMutability": "nonpayable",
      "type": "function"
    },
    {
      "inputs": [
        {
          "internalType": "address",
          "name": "operator",
          "type": "address"
        },
        {
          "internalType": "bool",
          "name": "approved",
          "type": "bool"
        }
      ],
      "name": "setApprovalForAll",
      "outputs": [],
      "stateMutability": "nonpayable",
      "type": "function"
    },
    {
      "inputs": [
        {
          "internalType": "bytes4",
          "name": "interfaceId",
          "type": "bytes4"
        }
      ],
      "name": "supportsInterface",
      "outputs": [
        {
          "internalType": "bool",
          "name": "",
          "type": "bool"
        }
      ],
      "stateMutability": "view",
      "type": "function"
    },
    {
      "inputs": [],
      "name": "symbol",
      "outputs": [
        {
          "internalType": "string",
          "name": "",
          "type": "string"
        }
      ],
      "stateMutability": "view",
      "type": "function"
    },
    {
      "inputs": [],
      "name": "tokenCount",
      "outputs": [
        {
          "internalType": "uint256",
          "name": "",
          "type": "uint256"
        }
      ],
      "stateMutability": "view",
      "type": "function"
    },
    {
      "inputs": [
        {
          "internalType": "uint256",
          "name": "tokenId",
          "type": "uint256"
        }
      ],
      "name": "tokenURI",
      "outputs": [
        {
          "internalType": "string",
          "name": "",
          "type": "string"
        }
      ],
      "stateMutability": "view",
      "type": "function"
    },
    {
      "inputs": [
        {
          "internalType": "address",
          "name": "from",
          "type": "address"
        },
        {
          "internalType": "address",
          "name": "to",
          "type": "address"
        },
        {
          "internalType": "uint256",
          "name": "tokenId",
          "type": "uint256"
        }
      ],
      "name": "transferFrom",
      "outputs": [],
      "stateMutability": "nonpayable",
      "type": "function"
    },
    {
      "inputs": [
        {
          "internalType": "address",
          "name": "newOwner",
          "type": "address"
        }
      ],
      "name": "transferOwnership",
      "outputs": [],
      "stateMutability": "nonpayable",
      "type": "function"
    }
  ],
  "bytecode": "0x60806040523480156200001157600080fd5b506040516200358d3803806200358d833981810160405281019062000037919062000424565b838381600090805190602001906200005192919062000199565b5080600190805190602001906200006a92919062000199565b5050506200008d62000081620000cb60201b60201c565b620000d360201b60201c565b81600a9080519060200190620000a592919062000199565b5080600960006101000a81548160ff021916908360ff1602179055505050505062000557565b600033905090565b6000600760009054906101000a900473ffffffffffffffffffffffffffffffffffffffff16905081600760006101000a81548173ffffffffffffffffffffffffffffffffffffffff021916908373ffffffffffffffffffffffffffffffffffffffff1602179055508173ffffffffffffffffffffffffffffffffffffffff168173ffffffffffffffffffffffffffffffffffffffff167f8be0079c531659141344cd1fd0a4f28419497f9722a3daafe3b4186f6b6457e060405160405180910390a35050565b828054620001a79062000522565b90600052602060002090601f016020900481019282620001cb576000855562000217565b82601f10620001e657805160ff191683800117855562000217565b8280016001018555821562000217579182015b8281111562000216578251825591602001919060010190620001f9565b5b5090506200022691906200022a565b5090565b5b80821115620002455760008160009055506001016200022b565b5090565b6000604051905090565b600080fd5b600080fd5b600080fd5b600080fd5b6000601f19601f8301169050919050565b7f4e487b7100000000000000000000000000000000000000000000000000000000600052604160045260246000fd5b620002b28262000267565b810181811067ffffffffffffffff82111715620002d457620002d362000278565b5b80604052505050565b6000620002e962000249565b9050620002f78282620002a7565b919050565b600067ffffffffffffffff8211156200031a576200031962000278565b5b620003258262000267565b9050602081019050919050565b60005b838110156200035257808201518184015260208101905062000335565b8381111562000362576000848401525b50505050565b60006200037f6200037984620002fc565b620002dd565b9050828152602081018484840111156200039e576200039d62000262565b5b620003ab84828562000332565b509392505050565b600082601f830112620003cb57620003ca6200025d565b5b8151620003dd84826020860162000368565b91505092915050565b600060ff82169050919050565b620003fe81620003e6565b81146200040a57600080fd5b50565b6000815190506200041e81620003f3565b92915050565b6000806000806080858703121562000441576200044062000253565b5b600085015167ffffffffffffffff81111562000462576200046162000258565b5b6200047087828801620003b3565b945050602085015167ffffffffffffffff81111562000494576200049362000258565b5b620004a287828801620003b3565b935050604085015167ffffffffffffffff811115620004c657620004c562000258565b5b620004d487828801620003b3565b9250506060620004e7878288016200040d565b91505092959194509250565b7f4e487b7100000000000000000000000000000000000000000000000000000000600052602260045260246000fd5b600060028204905060018216806200053b57607f821691505b602082108103620005515762000550620004f3565b5b50919050565b61302680620005676000396000f3fe608060405234801561001057600080fd5b50600436106101165760003560e01c8063715018a6116100a2578063a22cb46511610071578063a22cb465146102cf578063b88d4fde146102eb578063c87b56dd14610307578063e985e9c514610337578063f2fde38b1461036757610116565b8063715018a61461026b5780638da5cb5b1461027557806395d89b41146102935780639f181b5e146102b157610116565b80631249c58b116100e95780631249c58b146101b557806323b872dd146101d357806342842e0e146101ef5780636352211e1461020b57806370a082311461023b57610116565b806301ffc9a71461011b57806306fdde031461014b578063081812fc14610169578063095ea7b314610199575b600080fd5b61013560048036038101906101309190611c7a565b610383565b6040516101429190611cc2565b60405180910390f35b610153610465565b6040516101609190611d76565b60405180910390f35b610183600480360381019061017e9190611dce565b6104f7565b6040516101909190611e3c565b60405180910390f35b6101b360048036038101906101ae9190611e83565b61057c565b005b6101bd610693565b6040516101ca9190611ed2565b60405180910390f35b6101ed60048036038101906101e89190611eed565b610732565b005b61020960048036038101906102049190611eed565b610792565b005b61022560048036038101906102209190611dce565b6107b2565b6040516102329190611e3c565b60405180910390f35b61025560048036038101906102509190611f40565b610863565b6040516102629190611ed2565b60405180910390f35b61027361091a565b005b61027d6109a2565b60405161028a9190611e3c565b60405180910390f35b61029b6109cc565b6040516102a89190611d76565b60405180910390f35b6102b9610a5e565b6040516102c69190611ed2565b60405180910390f35b6102e960048036038101906102e49190611f99565b610a6b565b005b6103056004803603810190610300919061210e565b610a81565b005b610321600480360381019061031c9190611dce565b610ae3565b60405161032e9190611d76565b60405180910390f35b610351600480360381019061034c9190612191565b610c34565b60405161035e9190611cc2565b60405180910390f35b610381600480360381019061037c9190611f40565b610cc8565b005b60007f80ac58cd000000000000000000000000000000000000000000000000000000007bffffffffffffffffffffffffffffffffffffffffffffffffffffffff1916827bffffffffffffffffffffffffffffffffffffffffffffffffffffffff1916148061044e57507f5b5e139f000000000000000000000000000000000000000000000000000000007bffffffffffffffffffffffffffffffffffffffffffffffffffffffff1916827bffffffffffffffffffffffffffffffffffffffffffffffffffffffff1916145b8061045e575061045d82610dbf565b5b9050919050565b60606000805461047490612200565b80601f01602080910402602001604051908101604052809291908181526020018280546104a090612200565b80156104ed5780601f106104c2576101008083540402835291602001916104ed565b820191906000526020600020905b8154815290600101906020018083116104d057829003601f168201915b5050505050905090565b600061050282610e29565b610541576040517f08c379a0000000000000000000000000000000000000000000000000000000008152600401610538906122a3565b60405180910390fd5b6004600083815260200190815260200160002060009054906101000a900473ffffffffffffffffffffffffffffffffffffffff169050919050565b6000610587826107b2565b90508073ffffffffffffffffffffffffffffffffffffffff168373ffffffffffffffffffffffffffffffffffffffff16036105f7576040517f08c379a00000000000000000000000000000000000000000000000000000000081526004016105ee90612335565b60405180910390fd5b8073ffffffffffffffffffffffffffffffffffffffff16610616610e95565b73ffffffffffffffffffffffffffffffffffffffff16148061064557506106448161063f610e95565b610c34565b5b610684576040517f08c379a000000000000000000000000000000000000000000000000000000000815260040161067b906123c7565b60405180910390fd5b61068e8383610e9d565b505050565b600061069f6008610f56565b60006106ab6008610f6c565b90506106b73382610f7a565b6000600a6106fe6001600960009054906101000a900460ff1660ff1660016008600001546106e59190612416565b6106ef9190612479565b6106f991906124aa565b611153565b60405160200161070f92919061261c565b604051602081830303815290604052905061072a82826112b3565b819250505090565b61074361073d610e95565b82611327565b610782576040517f08c379a0000000000000000000000000000000000000000000000000000000008152600401610779906126bd565b60405180910390fd5b61078d838383611405565b505050565b6107ad83838360405180602001604052806000815250610a81565b505050565b6000806002600084815260200190815260200160002060009054906101000a900473ffffffffffffffffffffffffffffffffffffffff169050600073ffffffffffffffffffffffffffffffffffffffff168173ffffffffffffffffffffffffffffffffffffffff160361085a576040517f08c379a00000000000000000000000000000000000000000000000000000000081526004016108519061274f565b60405180910390fd5b80915050919050565b60008073ffffffffffffffffffffffffffffffffffffffff168273ffffffffffffffffffffffffffffffffffffffff16036108d3576040517f08c379a00000000000000000000000000000000000000000000000000000000081526004016108ca906127e1565b60405180910390fd5b600360008373ffffffffffffffffffffffffffffffffffffffff1673ffffffffffffffffffffffffffffffffffffffff168152602001908152602001600020549050919050565b610922610e95565b73ffffffffffffffffffffffffffffffffffffffff166109406109a2565b73ffffffffffffffffffffffffffffffffffffffff1614610996576040517f08c379a000000000000000000000000000000000000000000000000000000000815260040161098d9061284d565b60405180910390fd5b6109a0600061166b565b565b6000600760009054906101000a900473ffffffffffffffffffffffffffffffffffffffff16905090565b6060600180546109db90612200565b80601f0160208091040260200160405190810160405280929190818152602001828054610a0790612200565b8015610a545780601f10610a2957610100808354040283529160200191610a54565b820191906000526020600020905b815481529060010190602001808311610a3757829003601f168201915b5050505050905090565b6000600860000154905090565b610a7d610a76610e95565b8383611731565b5050565b610a92610a8c610e95565b83611327565b610ad1576040517f08c379a0000000000000000000000000000000000000000000000000000000008152600401610ac8906126bd565b60405180910390fd5b610add8484848461189d565b50505050565b6060610aee82610e29565b610b2d576040517f08c379a0000000000000000000000000000000000000000000000000000000008152600401610b24906128df565b60405180910390fd5b6000600660008481526020019081526020016000208054610b4d90612200565b80601f0160208091040260200160405190810160405280929190818152602001828054610b7990612200565b8015610bc65780601f10610b9b57610100808354040283529160200191610bc6565b820191906000526020600020905b815481529060010190602001808311610ba957829003601f168201915b505050505090506000610bd76118f9565b90506000815103610bec578192505050610c2f565b600082511115610c21578082604051602001610c099291906128ff565b60405160208183030381529060405292505050610c2f565b610c2a84611910565b925050505b919050565b6000600560008473ffffffffffffffffffffffffffffffffffffffff1673ffffffffffffffffffffffffffffffffffffffff16815260200190815260200160002060008373ffffffffffffffffffffffffffffffffffffffff1673ffffffffffffffffffffffffffffffffffffffff16815260200190815260200160002060009054906101000a900460ff16905092915050565b610cd0610e95565b73ffffffffffffffffffffffffffffffffffffffff16610cee6109a2565b73ffffffffffffffffffffffffffffffffffffffff1614610d44576040517f08c379a0000000000000000000000000000000000000000000000000000000008152600401610d3b9061284d565b60405180910390fd5b600073ffffffffffffffffffffffffffffffffffffffff168173ffffffffffffffffffffffffffffffffffffffff1603610db3576040517f08c379a0000000000000000000000000000000000000000000000000000000008152600401610daa90612995565b60405180910390fd5b610dbc8161166b565b50565b60007f01ffc9a7000000000000000000000000000000000000000000000000000000007bffffffffffffffffffffffffffffffffffffffffffffffffffffffff1916827bffffffffffffffffffffffffffffffffffffffffffffffffffffffff1916149050919050565b60008073ffffffffffffffffffffffffffffffffffffffff166002600084815260200190815260200160002060009054906101000a900473ffffffffffffffffffffffffffffffffffffffff1673ffffffffffffffffffffffffffffffffffffffff1614159050919050565b600033905090565b816004600083815260200190815260200160002060006101000a81548173ffffffffffffffffffffffffffffffffffffffff021916908373ffffffffffffffffffffffffffffffffffffffff160217905550808273ffffffffffffffffffffffffffffffffffffffff16610f10836107b2565b73ffffffffffffffffffffffffffffffffffffffff167f8c5be1e5ebec7d5bd14f71427d1e84f3dd0314c0f7b2291e5b200ac8c7c3b92560405160405180910390a45050565b6001816000016000828254019250508190555050565b600081600001549050919050565b600073ffffffffffffffffffffffffffffffffffffffff168273ffffffffffffffffffffffffffffffffffffffff1603610fe9576040517f08c379a0000000000000000000000000000000000000000000000000000000008152600401610fe090612a01565b60405180910390fd5b610ff281610e29565b15611032576040517f08c379a000000000000000000000000000000000000000000000000000000000815260040161102990612a6d565b60405180910390fd5b61103e600083836119b7565b6001600360008473ffffffffffffffffffffffffffffffffffffffff1673ffffffffffffffffffffffffffffffffffffffff168152602001908152602001600020600082825461108e91906124aa565b92505081905550816002600083815260200190815260200160002060006101000a81548173ffffffffffffffffffffffffffffffffffffffff021916908373ffffffffffffffffffffffffffffffffffffffff160217905550808273ffffffffffffffffffffffffffffffffffffffff16600073ffffffffffffffffffffffffffffffffffffffff167fddf252ad1be2c89b69c2b068fc378daa952ba7f163c4a11628f55a4df523b3ef60405160405180910390a461114f600083836119bc565b5050565b60606000820361119a576040518060400160405280600181526020017f300000000000000000000000000000000000000000000000000000000000000081525090506112ae565b600082905060005b600082146111cc5780806111b590612a8d565b915050600a826111c59190612ad5565b91506111a2565b60008167ffffffffffffffff8111156111e8576111e7611fe3565b5b6040519080825280601f01601f19166020018201604052801561121a5781602001600182028036833780820191505090505b5090505b600085146112a7576001826112339190612416565b9150600a856112429190612479565b603061124e91906124aa565b60f81b81838151811061126457611263612b06565b5b60200101907effffffffffffffffffffffffffffffffffffffffffffffffffffffffffffff1916908160001a905350600a856112a09190612ad5565b945061121e565b8093505050505b919050565b6112bc82610e29565b6112fb576040517f08c379a00000000000000000000000000000000000000000000000000000000081526004016112f290612ba7565b60405180910390fd5b80600660008481526020019081526020016000209080519060200190611322929190611b6b565b505050565b600061133282610e29565b611371576040517f08c379a000000000000000000000000000000000000000000000000000000000815260040161136890612c39565b60405180910390fd5b600061137c836107b2565b90508073ffffffffffffffffffffffffffffffffffffffff168473ffffffffffffffffffffffffffffffffffffffff1614806113be57506113bd8185610c34565b5b806113fc57508373ffffffffffffffffffffffffffffffffffffffff166113e4846104f7565b73ffffffffffffffffffffffffffffffffffffffff16145b91505092915050565b8273ffffffffffffffffffffffffffffffffffffffff16611425826107b2565b73ffffffffffffffffffffffffffffffffffffffff161461147b576040517f08c379a000000000000000000000000000000000000000000000000000000000815260040161147290612ccb565b60405180910390fd5b600073ffffffffffffffffffffffffffffffffffffffff168273ffffffffffffffffffffffffffffffffffffffff16036114ea576040517f08c379a00000000000000000000000000000000000000000000000000000000081526004016114e190612d5d565b60405180910390fd5b6114f58383836119b7565b611500600082610e9d565b6001600360008573ffffffffffffffffffffffffffffffffffffffff1673ffffffffffffffffffffffffffffffffffffffff16815260200190815260200160002060008282546115509190612416565b925050819055506001600360008473ffffffffffffffffffffffffffffffffffffffff1673ffffffffffffffffffffffffffffffffffffffff16815260200190815260200160002060008282546115a791906124aa565b92505081905550816002600083815260200190815260200160002060006101000a81548173ffffffffffffffffffffffffffffffffffffffff021916908373ffffffffffffffffffffffffffffffffffffffff160217905550808273ffffffffffffffffffffffffffffffffffffffff168473ffffffffffffffffffffffffffffffffffffffff167fddf252ad1be2c89b69c2b068fc378daa952ba7f163c4a11628f55a4df523b3ef60405160405180910390a46116668383836119bc565b505050565b6000600760009054906101000a900473ffffffffffffffffffffffffffffffffffffffff16905081600760006101000a81548173ffffffffffffffffffffffffffffffffffffffff021916908373ffffffffffffffffffffffffffffffffffffffff1602179055508173ffffffffffffffffffffffffffffffffffffffff168173ffffffffffffffffffffffffffffffffffffffff167f8be0079c531659141344cd1fd0a4f28419497f9722a3daafe3b4186f6b6457e060405160405180910390a35050565b8173ffffffffffffffffffffffffffffffffffffffff168373ffffffffffffffffffffffffffffffffffffffff160361179f576040517f08c379a000000000000000000000000000000000000000000000000000000000815260040161179690612dc9565b60405180910390fd5b80600560008573ffffffffffffffffffffffffffffffffffffffff1673ffffffffffffffffffffffffffffffffffffffff16815260200190815260200160002060008473ffffffffffffffffffffffffffffffffffffffff1673ffffffffffffffffffffffffffffffffffffffff16815260200190815260200160002060006101000a81548160ff0219169083151502179055508173ffffffffffffffffffffffffffffffffffffffff168373ffffffffffffffffffffffffffffffffffffffff167f17307eab39ab6107e8899845ad3d59bd9653f200f220920489ca2b5937696c31836040516118909190611cc2565b60405180910390a3505050565b6118a8848484611405565b6118b4848484846119c1565b6118f3576040517f08c379a00000000000000000000000000000000000000000000000000000000081526004016118ea90612e5b565b60405180910390fd5b50505050565b606060405180602001604052806000815250905090565b606061191b82610e29565b61195a576040517f08c379a000000000000000000000000000000000000000000000000000000000815260040161195190612eed565b60405180910390fd5b60006119646118f9565b9050600081511161198457604051806020016040528060008152506119af565b8061198e84611153565b60405160200161199f9291906128ff565b6040516020818303038152906040525b915050919050565b505050565b505050565b60006119e28473ffffffffffffffffffffffffffffffffffffffff16611b48565b15611b3b578373ffffffffffffffffffffffffffffffffffffffff1663150b7a02611a0b610e95565b8786866040518563ffffffff1660e01b8152600401611a2d9493929190612f62565b6020604051808303816000875af1925050508015611a6957506040513d601f19601f82011682018060405250810190611a669190612fc3565b60015b611aeb573d8060008114611a99576040519150601f19603f3d011682016040523d82523d6000602084013e611a9e565b606091505b506000815103611ae3576040517f08c379a0000000000000000000000000000000000000000000000000000000008152600401611ada90612e5b565b60405180910390fd5b805181602001fd5b63150b7a0260e01b7bffffffffffffffffffffffffffffffffffffffffffffffffffffffff1916817bffffffffffffffffffffffffffffffffffffffffffffffffffffffff191614915050611b40565b600190505b949350505050565b6000808273ffffffffffffffffffffffffffffffffffffffff163b119050919050565b828054611b7790612200565b90600052602060002090601f016020900481019282611b995760008555611be0565b82601f10611bb257805160ff1916838001178555611be0565b82800160010185558215611be0579182015b82811115611bdf578251825591602001919060010190611bc4565b5b509050611bed9190611bf1565b5090565b5b80821115611c0a576000816000905550600101611bf2565b5090565b6000604051905090565b600080fd5b600080fd5b60007fffffffff0000000000000000000000000000000000000000000000000000000082169050919050565b611c5781611c22565b8114611c6257600080fd5b50565b600081359050611c7481611c4e565b92915050565b600060208284031215611c9057611c8f611c18565b5b6000611c9e84828501611c65565b91505092915050565b60008115159050919050565b611cbc81611ca7565b82525050565b6000602082019050611cd76000830184611cb3565b92915050565b600081519050919050565b600082825260208201905092915050565b60005b83811015611d17578082015181840152602081019050611cfc565b83811115611d26576000848401525b50505050565b6000601f19601f8301169050919050565b6000611d4882611cdd565b611d528185611ce8565b9350611d62818560208601611cf9565b611d6b81611d2c565b840191505092915050565b60006020820190508181036000830152611d908184611d3d565b905092915050565b6000819050919050565b611dab81611d98565b8114611db657600080fd5b50565b600081359050611dc881611da2565b92915050565b600060208284031215611de457611de3611c18565b5b6000611df284828501611db9565b91505092915050565b600073ffffffffffffffffffffffffffffffffffffffff82169050919050565b6000611e2682611dfb565b9050919050565b611e3681611e1b565b82525050565b6000602082019050611e516000830184611e2d565b92915050565b611e6081611e1b565b8114611e6b57600080fd5b50565b600081359050611e7d81611e57565b92915050565b60008060408385031215611e9a57611e99611c18565b5b6000611ea885828601611e6e565b9250506020611eb985828601611db9565b9150509250929050565b611ecc81611d98565b82525050565b6000602082019050611ee76000830184611ec3565b92915050565b600080600060608486031215611f0657611f05611c18565b5b6000611f1486828701611e6e565b9350506020611f2586828701611e6e565b9250506040611f3686828701611db9565b9150509250925092565b600060208284031215611f5657611f55611c18565b5b6000611f6484828501611e6e565b91505092915050565b611f7681611ca7565b8114611f8157600080fd5b50565b600081359050611f9381611f6d565b92915050565b60008060408385031215611fb057611faf611c18565b5b6000611fbe85828601611e6e565b9250506020611fcf85828601611f84565b9150509250929050565b600080fd5b600080fd5b7f4e487b7100000000000000000000000000000000000000000000000000000000600052604160045260246000fd5b61201b82611d2c565b810181811067ffffffffffffffff8211171561203a57612039611fe3565b5b80604052505050565b600061204d611c0e565b90506120598282612012565b919050565b600067ffffffffffffffff82111561207957612078611fe3565b5b61208282611d2c565b9050602081019050919050565b82818337600083830152505050565b60006120b16120ac8461205e565b612043565b9050828152602081018484840111156120cd576120cc611fde565b5b6120d884828561208f565b509392505050565b600082601f8301126120f5576120f4611fd9565b5b813561210584826020860161209e565b91505092915050565b6000806000806080858703121561212857612127611c18565b5b600061213687828801611e6e565b945050602061214787828801611e6e565b935050604061215887828801611db9565b925050606085013567ffffffffffffffff81111561217957612178611c1d565b5b612185878288016120e0565b91505092959194509250565b600080604083850312156121a8576121a7611c18565b5b60006121b685828601611e6e565b92505060206121c785828601611e6e565b9150509250929050565b7f4e487b7100000000000000000000000000000000000000000000000000000000600052602260045260246000fd5b6000600282049050600182168061221857607f821691505b60208210810361222b5761222a6121d1565b5b50919050565b7f4552433732313a20617070726f76656420717565727920666f72206e6f6e657860008201527f697374656e7420746f6b656e0000000000000000000000000000000000000000602082015250565b600061228d602c83611ce8565b915061229882612231565b604082019050919050565b600060208201905081810360008301526122bc81612280565b9050919050565b7f4552433732313a20617070726f76616c20746f2063757272656e74206f776e6560008201527f7200000000000000000000000000000000000000000000000000000000000000602082015250565b600061231f602183611ce8565b915061232a826122c3565b604082019050919050565b6000602082019050818103600083015261234e81612312565b9050919050565b7f4552433732313a20617070726f76652063616c6c6572206973206e6f74206f7760008201527f6e6572206e6f7220617070726f76656420666f7220616c6c0000000000000000602082015250565b60006123b1603883611ce8565b91506123bc82612355565b604082019050919050565b600060208201905081810360008301526123e0816123a4565b9050919050565b7f4e487b7100000000000000000000000000000000000000000000000000000000600052601160045260246000fd5b600061242182611d98565b915061242c83611d98565b92508282101561243f5761243e6123e7565b5b828203905092915050565b7f4e487b7100000000000000000000000000000000000000000000000000000000600052601260045260246000fd5b600061248482611d98565b915061248f83611d98565b92508261249f5761249e61244a565b5b828206905092915050565b60006124b582611d98565b91506124c083611d98565b9250827fffffffffffffffffffffffffffffffffffffffffffffffffffffffffffffffff038211156124f5576124f46123e7565b5b828201905092915050565b600081905092915050565b60008190508160005260206000209050919050565b6000815461252d81612200565b6125378186612500565b94506001821660008114612552576001811461256357612596565b60ff19831686528186019350612596565b61256c8561250b565b60005b8381101561258e5781548189015260018201915060208101905061256f565b838801955050505b50505092915050565b60006125aa82611cdd565b6125b48185612500565b93506125c4818560208601611cf9565b80840191505092915050565b7f2e6a736f6e000000000000000000000000000000000000000000000000000000600082015250565b6000612606600583612500565b9150612611826125d0565b600582019050919050565b60006126288285612520565b9150612634828461259f565b915061263f826125f9565b91508190509392505050565b7f4552433732313a207472616e736665722063616c6c6572206973206e6f74206f60008201527f776e6572206e6f7220617070726f766564000000000000000000000000000000602082015250565b60006126a7603183611ce8565b91506126b28261264b565b604082019050919050565b600060208201905081810360008301526126d68161269a565b9050919050565b7f4552433732313a206f776e657220717565727920666f72206e6f6e657869737460008201527f656e7420746f6b656e0000000000000000000000000000000000000000000000602082015250565b6000612739602983611ce8565b9150612744826126dd565b604082019050919050565b600060208201905081810360008301526127688161272c565b9050919050565b7f4552433732313a2062616c616e636520717565727920666f7220746865207a6560008201527f726f206164647265737300000000000000000000000000000000000000000000602082015250565b60006127cb602a83611ce8565b91506127d68261276f565b604082019050919050565b600060208201905081810360008301526127fa816127be565b9050919050565b7f4f776e61626c653a2063616c6c6572206973206e6f7420746865206f776e6572600082015250565b6000612837602083611ce8565b915061284282612801565b602082019050919050565b600060208201905081810360008301526128668161282a565b9050919050565b7f45524337323155524953746f726167653a2055524920717565727920666f722060008201527f6e6f6e6578697374656e7420746f6b656e000000000000000000000000000000602082015250565b60006128c9603183611ce8565b91506128d48261286d565b604082019050919050565b600060208201905081810360008301526128f8816128bc565b9050919050565b600061290b828561259f565b9150612917828461259f565b91508190509392505050565b7f4f776e61626c653a206e6577206f776e657220697320746865207a65726f206160008201527f6464726573730000000000000000000000000000000000000000000000000000602082015250565b600061297f602683611ce8565b915061298a82612923565b604082019050919050565b600060208201905081810360008301526129ae81612972565b9050919050565b7f4552433732313a206d696e7420746f20746865207a65726f2061646472657373600082015250565b60006129eb602083611ce8565b91506129f6826129b5565b602082019050919050565b60006020820190508181036000830152612a1a816129de565b9050919050565b7f4552433732313a20746f6b656e20616c7265616479206d696e74656400000000600082015250565b6000612a57601c83611ce8565b9150612a6282612a21565b602082019050919050565b60006020820190508181036000830152612a8681612a4a565b9050919050565b6000612a9882611d98565b91507fffffffffffffffffffffffffffffffffffffffffffffffffffffffffffffffff8203612aca57612ac96123e7565b5b600182019050919050565b6000612ae082611d98565b9150612aeb83611d98565b925082612afb57612afa61244a565b5b828204905092915050565b7f4e487b7100000000000000000000000000000000000000000000000000000000600052603260045260246000fd5b7f45524337323155524953746f726167653a2055524920736574206f66206e6f6e60008201527f6578697374656e7420746f6b656e000000000000000000000000000000000000602082015250565b6000612b91602e83611ce8565b9150612b9c82612b35565b604082019050919050565b60006020820190508181036000830152612bc081612b84565b9050919050565b7f4552433732313a206f70657261746f7220717565727920666f72206e6f6e657860008201527f697374656e7420746f6b656e0000000000000000000000000000000000000000602082015250565b6000612c23602c83611ce8565b9150612c2e82612bc7565b604082019050919050565b60006020820190508181036000830152612c5281612c16565b9050919050565b7f4552433732313a207472616e736665722066726f6d20696e636f72726563742060008201527f6f776e6572000000000000000000000000000000000000000000000000000000602082015250565b6000612cb5602583611ce8565b9150612cc082612c59565b604082019050919050565b60006020820190508181036000830152612ce481612ca8565b9050919050565b7f4552433732313a207472616e7366657220746f20746865207a65726f2061646460008201527f7265737300000000000000000000000000000000000000000000000000000000602082015250565b6000612d47602483611ce8565b9150612d5282612ceb565b604082019050919050565b60006020820190508181036000830152612d7681612d3a565b9050919050565b7f4552433732313a20617070726f766520746f2063616c6c657200000000000000600082015250565b6000612db3601983611ce8565b9150612dbe82612d7d565b602082019050919050565b60006020820190508181036000830152612de281612da6565b9050919050565b7f4552433732313a207472616e7366657220746f206e6f6e20455243373231526560008201527f63656976657220696d706c656d656e7465720000000000000000000000000000602082015250565b6000612e45603283611ce8565b9150612e5082612de9565b604082019050919050565b60006020820190508181036000830152612e7481612e38565b9050919050565b7f4552433732314d657461646174613a2055524920717565727920666f72206e6f60008201527f6e6578697374656e7420746f6b656e0000000000000000000000000000000000602082015250565b6000612ed7602f83611ce8565b9150612ee282612e7b565b604082019050919050565b60006020820190508181036000830152612f0681612eca565b9050919050565b600081519050919050565b600082825260208201905092915050565b6000612f3482612f0d565b612f3e8185612f18565b9350612f4e818560208601611cf9565b612f5781611d2c565b840191505092915050565b6000608082019050612f776000830187611e2d565b612f846020830186611e2d565b612f916040830185611ec3565b8181036060830152612fa38184612f29565b905095945050505050565b600081519050612fbd81611c4e565b92915050565b600060208284031215612fd957612fd8611c18565b5b6000612fe784828501612fae565b9150509291505056fea2646970667358221220169d917be1f966cfcac30e25c7d575a33c1d023d5066a6661e948085dc79d69c64736f6c634300080e0033",
  "linkReferences": {},
  "deployedLinkReferences": {}
}