{
  "_format": "hh-sol-artifact-1",
  "contractName": "NFTMarketPlace",
  "sourceName": "contracts/NFTMarketPlace.sol",
  "abi": [
    {
      "inputs": [
        {
          "internalType": "address",
          "name": "weth_address",
          "type": "address"
        }
      ],
      "stateMutability": "nonpayable",
      "type": "constructor"
    },
    {
      "inputs": [
        {
          "internalType": "address",
          "name": "nftAddress",
          "type": "address"
        },
        {
          "internalType": "uint256",
          "name": "tokenId",
          "type": "uint256"
        }
      ],
      "name": "AlreadyListed",
      "type": "error"
    },
    {
      "inputs": [],
      "name": "NotApprovedForMarketplace",
      "type": "error"
    },
    {
      "inputs": [
        {
          "internalType": "address",
          "name": "nftAddress",
          "type": "address"
        },
        {
          "internalType": "uint256",
          "name": "tokenId",
          "type": "uint256"
        }
      ],
      "name": "NotListed",
      "type": "error"
    },
    {
      "inputs": [],
      "name": "NotOwner",
      "type": "error"
    },
    {
      "inputs": [],
      "name": "PriceMustBeAboveZero",
      "type": "error"
    },
    {
      "inputs": [
        {
          "internalType": "address",
          "name": "nftAddress",
          "type": "address"
        },
        {
          "internalType": "uint256",
          "name": "tokenId",
          "type": "uint256"
        },
        {
          "internalType": "uint256",
          "name": "price",
          "type": "uint256"
        }
      ],
      "name": "PriceNotMet",
      "type": "error"
    },
    {
      "inputs": [
        {
          "internalType": "address",
          "name": "nftAddress",
          "type": "address"
        },
        {
          "internalType": "uint256",
          "name": "tokenId",
          "type": "uint256"
        }
      ],
      "name": "buyItem",
      "outputs": [],
      "stateMutability": "payable",
      "type": "function"
    },
    {
      "inputs": [
        {
          "internalType": "address",
          "name": "nftAddress",
          "type": "address"
        },
        {
          "internalType": "uint256",
          "name": "tokenId",
          "type": "uint256"
        }
      ],
      "name": "cancelListing",
      "outputs": [],
      "stateMutability": "nonpayable",
      "type": "function"
    },
    {
      "inputs": [
        {
          "internalType": "address",
          "name": "nftAddress",
          "type": "address"
        },
        {
          "internalType": "uint256",
          "name": "tokenId",
          "type": "uint256"
        }
      ],
      "name": "getListing",
      "outputs": [
        {
          "components": [
            {
              "internalType": "uint256",
              "name": "price",
              "type": "uint256"
            },
            {
              "internalType": "address",
              "name": "seller",
              "type": "address"
            }
          ],
          "internalType": "struct NFTMarketPlace.Listing",
          "name": "",
          "type": "tuple"
        }
      ],
      "stateMutability": "view",
      "type": "function"
    },
    {
      "inputs": [
        {
          "internalType": "address",
          "name": "nftAddress",
          "type": "address"
        },
        {
          "internalType": "uint256",
          "name": "tokenId",
          "type": "uint256"
        },
        {
          "internalType": "uint256",
          "name": "price",
          "type": "uint256"
        }
      ],
      "name": "listItem",
      "outputs": [],
      "stateMutability": "nonpayable",
      "type": "function"
    },
    {
      "inputs": [
        {
          "internalType": "address",
          "name": "nftAddress",
          "type": "address"
        },
        {
          "internalType": "uint256",
          "name": "tokenId",
          "type": "uint256"
        },
        {
          "internalType": "uint256",
          "name": "newPrice",
          "type": "uint256"
        }
      ],
      "name": "updateListing",
      "outputs": [],
      "stateMutability": "nonpayable",
      "type": "function"
    }
  ],
  "bytecode": "0x60806040523480156200001157600080fd5b50604051620014ab380380620014ab8339818101604052810190620000379190620000f1565b600160008190555080600160006101000a81548173ffffffffffffffffffffffffffffffffffffffff021916908373ffffffffffffffffffffffffffffffffffffffff1602179055505062000123565b600080fd5b600073ffffffffffffffffffffffffffffffffffffffff82169050919050565b6000620000b9826200008c565b9050919050565b620000cb81620000ac565b8114620000d757600080fd5b50565b600081519050620000eb81620000c0565b92915050565b6000602082840312156200010a576200010962000087565b5b60006200011a84828501620000da565b91505092915050565b61137880620001336000396000f3fe60806040526004361061004a5760003560e01c806388700d1c1461004f57806389bfd38f1461008c5780639f37092a146100b5578063b2ddee06146100d1578063f772adf1146100fa575b600080fd5b34801561005b57600080fd5b5061007660048036038101906100719190611006565b610123565b6040516100839190611093565b60405180910390f35b34801561009857600080fd5b506100b360048036038101906100ae91906110ae565b6101ee565b005b6100cf60048036038101906100ca9190611006565b6105e2565b005b3480156100dd57600080fd5b506100f860048036038101906100f39190611006565b610a07565b005b34801561010657600080fd5b50610121600480360381019061011c91906110ae565b610c8c565b005b61012b610f3d565b600260008473ffffffffffffffffffffffffffffffffffffffff1673ffffffffffffffffffffffffffffffffffffffff1681526020019081526020016000206000838152602001908152602001600020604051806040016040529081600082015481526020016001820160009054906101000a900473ffffffffffffffffffffffffffffffffffffffff1673ffffffffffffffffffffffffffffffffffffffff1673ffffffffffffffffffffffffffffffffffffffff1681525050905092915050565b8282336000600260008573ffffffffffffffffffffffffffffffffffffffff1673ffffffffffffffffffffffffffffffffffffffff1681526020019081526020016000206000848152602001908152602001600020604051806040016040529081600082015481526020016001820160009054906101000a900473ffffffffffffffffffffffffffffffffffffffff1673ffffffffffffffffffffffffffffffffffffffff1673ffffffffffffffffffffffffffffffffffffffff168152505090506000816000015111156102fc5783836040517f4a5568d50000000000000000000000000000000000000000000000000000000081526004016102f392919061111f565b60405180910390fd5b868633600083905060008173ffffffffffffffffffffffffffffffffffffffff16636352211e856040518263ffffffff1660e01b815260040161033f9190611148565b602060405180830381865afa15801561035c573d6000803e3d6000fd5b505050506040513d601f19601f820116820180604052508101906103809190611178565b90508073ffffffffffffffffffffffffffffffffffffffff168373ffffffffffffffffffffffffffffffffffffffff16146103e7576040517f30cd747100000000000000000000000000000000000000000000000000000000815260040160405180910390fd5b60008a11610421576040517fe1abbfc500000000000000000000000000000000000000000000000000000000815260040160405180910390fd5b60008c90503073ffffffffffffffffffffffffffffffffffffffff168173ffffffffffffffffffffffffffffffffffffffff1663081812fc8e6040518263ffffffff1660e01b81526004016104769190611148565b602060405180830381865afa158015610493573d6000803e3d6000fd5b505050506040513d601f19601f820116820180604052508101906104b79190611178565b73ffffffffffffffffffffffffffffffffffffffff1614610504576040517f4be3a2c500000000000000000000000000000000000000000000000000000000815260040160405180910390fd5b60405180604001604052808c81526020013373ffffffffffffffffffffffffffffffffffffffff16815250600260008f73ffffffffffffffffffffffffffffffffffffffff1673ffffffffffffffffffffffffffffffffffffffff16815260200190815260200160002060008e81526020019081526020016000206000820151816000015560208201518160010160006101000a81548173ffffffffffffffffffffffffffffffffffffffff021916908373ffffffffffffffffffffffffffffffffffffffff16021790555090505050505050505050505050505050565b81816000600260008473ffffffffffffffffffffffffffffffffffffffff1673ffffffffffffffffffffffffffffffffffffffff1681526020019081526020016000206000838152602001908152602001600020604051806040016040529081600082015481526020016001820160009054906101000a900473ffffffffffffffffffffffffffffffffffffffff1673ffffffffffffffffffffffffffffffffffffffff1673ffffffffffffffffffffffffffffffffffffffff1681525050905060008160000151116106ee5782826040517f6831488c0000000000000000000000000000000000000000000000000000000081526004016106e592919061111f565b60405180910390fd5b600260005403610733576040517f08c379a000000000000000000000000000000000000000000000000000000000815260040161072a90611202565b60405180910390fd5b60026000819055506000600260008773ffffffffffffffffffffffffffffffffffffffff1673ffffffffffffffffffffffffffffffffffffffff1681526020019081526020016000206000868152602001908152602001600020604051806040016040529081600082015481526020016001820160009054906101000a900473ffffffffffffffffffffffffffffffffffffffff1673ffffffffffffffffffffffffffffffffffffffff1673ffffffffffffffffffffffffffffffffffffffff16815250509050806000015134101561084b57858582600001516040517f7c93456500000000000000000000000000000000000000000000000000000000815260040161084293929190611222565b60405180910390fd5b600081602001519050600260008873ffffffffffffffffffffffffffffffffffffffff1673ffffffffffffffffffffffffffffffffffffffff16815260200190815260200160002060008781526020019081526020016000206000808201600090556001820160006101000a81549073ffffffffffffffffffffffffffffffffffffffff021916905550508673ffffffffffffffffffffffffffffffffffffffff166342842e0e836020015133896040518463ffffffff1660e01b815260040161091793929190611259565b600060405180830381600087803b15801561093157600080fd5b505af1158015610945573d6000803e3d6000fd5b5050505060008173ffffffffffffffffffffffffffffffffffffffff163460405161096f906112c1565b60006040518083038185875af1925050503d80600081146109ac576040519150601f19603f3d011682016040523d82523d6000602084013e6109b1565b606091505b50509050806109f5576040517f08c379a00000000000000000000000000000000000000000000000000000000081526004016109ec90611322565b60405180910390fd5b50505060016000819055505050505050565b818133600083905060008173ffffffffffffffffffffffffffffffffffffffff16636352211e856040518263ffffffff1660e01b8152600401610a4a9190611148565b602060405180830381865afa158015610a67573d6000803e3d6000fd5b505050506040513d601f19601f82011682018060405250810190610a8b9190611178565b90508073ffffffffffffffffffffffffffffffffffffffff168373ffffffffffffffffffffffffffffffffffffffff1614610af2576040517f30cd747100000000000000000000000000000000000000000000000000000000815260040160405180910390fd5b86866000600260008473ffffffffffffffffffffffffffffffffffffffff1673ffffffffffffffffffffffffffffffffffffffff1681526020019081526020016000206000838152602001908152602001600020604051806040016040529081600082015481526020016001820160009054906101000a900473ffffffffffffffffffffffffffffffffffffffff1673ffffffffffffffffffffffffffffffffffffffff1673ffffffffffffffffffffffffffffffffffffffff168152505090506000816000015111610bfe5782826040517f6831488c000000000000000000000000000000000000000000000000000000008152600401610bf592919061111f565b60405180910390fd5b600260008b73ffffffffffffffffffffffffffffffffffffffff1673ffffffffffffffffffffffffffffffffffffffff16815260200190815260200160002060008a81526020019081526020016000206000808201600090556001820160006101000a81549073ffffffffffffffffffffffffffffffffffffffff0219169055505050505050505050505050565b82826000600260008473ffffffffffffffffffffffffffffffffffffffff1673ffffffffffffffffffffffffffffffffffffffff1681526020019081526020016000206000838152602001908152602001600020604051806040016040529081600082015481526020016001820160009054906101000a900473ffffffffffffffffffffffffffffffffffffffff1673ffffffffffffffffffffffffffffffffffffffff1673ffffffffffffffffffffffffffffffffffffffff168152505090506000816000015111610d985782826040517f6831488c000000000000000000000000000000000000000000000000000000008152600401610d8f92919061111f565b60405180910390fd5b600260005403610ddd576040517f08c379a0000000000000000000000000000000000000000000000000000000008152600401610dd490611202565b60405180910390fd5b6002600081905550858533600083905060008173ffffffffffffffffffffffffffffffffffffffff16636352211e856040518263ffffffff1660e01b8152600401610e289190611148565b602060405180830381865afa158015610e45573d6000803e3d6000fd5b505050506040513d601f19601f82011682018060405250810190610e699190611178565b90508073ffffffffffffffffffffffffffffffffffffffff168373ffffffffffffffffffffffffffffffffffffffff1614610ed0576040517f30cd747100000000000000000000000000000000000000000000000000000000815260040160405180910390fd5b88600260008d73ffffffffffffffffffffffffffffffffffffffff1673ffffffffffffffffffffffffffffffffffffffff16815260200190815260200160002060008c81526020019081526020016000206000018190555050505050506001600081905550505050505050565b604051806040016040528060008152602001600073ffffffffffffffffffffffffffffffffffffffff1681525090565b600080fd5b600073ffffffffffffffffffffffffffffffffffffffff82169050919050565b6000610f9d82610f72565b9050919050565b610fad81610f92565b8114610fb857600080fd5b50565b600081359050610fca81610fa4565b92915050565b6000819050919050565b610fe381610fd0565b8114610fee57600080fd5b50565b60008135905061100081610fda565b92915050565b6000806040838503121561101d5761101c610f6d565b5b600061102b85828601610fbb565b925050602061103c85828601610ff1565b9150509250929050565b61104f81610fd0565b82525050565b61105e81610f92565b82525050565b60408201600082015161107a6000850182611046565b50602082015161108d6020850182611055565b50505050565b60006040820190506110a86000830184611064565b92915050565b6000806000606084860312156110c7576110c6610f6d565b5b60006110d586828701610fbb565b93505060206110e686828701610ff1565b92505060406110f786828701610ff1565b9150509250925092565b61110a81610f92565b82525050565b61111981610fd0565b82525050565b60006040820190506111346000830185611101565b6111416020830184611110565b9392505050565b600060208201905061115d6000830184611110565b92915050565b60008151905061117281610fa4565b92915050565b60006020828403121561118e5761118d610f6d565b5b600061119c84828501611163565b91505092915050565b600082825260208201905092915050565b7f5265656e7472616e637947756172643a207265656e7472616e742063616c6c00600082015250565b60006111ec601f836111a5565b91506111f7826111b6565b602082019050919050565b6000602082019050818103600083015261121b816111df565b9050919050565b60006060820190506112376000830186611101565b6112446020830185611110565b6112516040830184611110565b949350505050565b600060608201905061126e6000830186611101565b61127b6020830185611101565b6112886040830184611110565b949350505050565b600081905092915050565b50565b60006112ab600083611290565b91506112b68261129b565b600082019050919050565b60006112cc8261129e565b9150819050919050565b7f5472616e73666572206661696c65642e00000000000000000000000000000000600082015250565b600061130c6010836111a5565b9150611317826112d6565b602082019050919050565b6000602082019050818103600083015261133b816112ff565b905091905056fea2646970667358221220d2350be09c81afb6ecc484e3a13712d2b8c283e9468cf15ecc1547aad34d81f264736f6c634300080e0033",
  "linkReferences": {},
  "deployedLinkReferences": {}
}